{
	"contract/delegate.sol": {
		"Proxy": {
			"abi": [
				{
					"inputs": [
						{
							"internalType": "address",
							"name": "_implementation",
							"type": "address"
						}
					],
					"stateMutability": "nonpayable",
					"type": "constructor"
				},
				{
					"stateMutability": "payable",
					"type": "fallback"
				},
				{
					"inputs": [],
					"name": "female",
					"outputs": [
						{
							"internalType": "string",
							"name": "",
							"type": "string"
						}
					],
					"stateMutability": "view",
					"type": "function"
				},
				{
					"inputs": [],
					"name": "implementation",
					"outputs": [
						{
							"internalType": "address",
							"name": "",
							"type": "address"
						}
					],
					"stateMutability": "view",
					"type": "function"
				},
				{
					"inputs": [],
					"name": "male",
					"outputs": [
						{
							"internalType": "string",
							"name": "",
							"type": "string"
						}
					],
					"stateMutability": "view",
					"type": "function"
				},
				{
					"stateMutability": "payable",
					"type": "receive"
				}
			],
			"devdoc": {
				"kind": "dev",
				"methods": {},
				"version": 1
			},
			"evm": {
				"assembly": "    /* \"contract/delegate.sol\":308:697  contract Proxy {... */\n  mstore(0x40, 0x80)\n    /* \"contract/delegate.sol\":416:503  constructor(address _implementation) {... */\n  callvalue\n  dup1\n  iszero\n  tag_1\n  jumpi\n  0x00\n  dup1\n  revert\ntag_1:\n  pop\n  mload(0x40)\n  sub(codesize, bytecodeSize)\n  dup1\n  bytecodeSize\n  dup4\n  codecopy\n  dup2\n  dup2\n  add\n  0x40\n  mstore\n  dup2\n  add\n  swap1\n  tag_2\n  swap2\n  swap1\n  tag_3\n  jump\t// in\ntag_2:\n    /* \"contract/delegate.sol\":480:495  _implementation */\n  dup1\n    /* \"contract/delegate.sol\":463:477  implementation */\n  0x02\n  0x00\n    /* \"contract/delegate.sol\":463:495  implementation = _implementation */\n  0x0100\n  exp\n  dup2\n  sload\n  dup2\n  0xffffffffffffffffffffffffffffffffffffffff\n  mul\n  not\n  and\n  swap1\n  dup4\n  0xffffffffffffffffffffffffffffffffffffffff\n  and\n  mul\n  or\n  swap1\n  sstore\n  pop\n    /* \"contract/delegate.sol\":416:503  constructor(address _implementation) {... */\n  pop\n    /* \"contract/delegate.sol\":308:697  contract Proxy {... */\n  jump(tag_6)\n    /* \"#utility.yul\":88:205   */\ntag_8:\n    /* \"#utility.yul\":197:198   */\n  0x00\n    /* \"#utility.yul\":194:195   */\n  dup1\n    /* \"#utility.yul\":187:199   */\n  revert\n    /* \"#utility.yul\":334:460   */\ntag_10:\n    /* \"#utility.yul\":371:378   */\n  0x00\n    /* \"#utility.yul\":411:453   */\n  0xffffffffffffffffffffffffffffffffffffffff\n    /* \"#utility.yul\":404:409   */\n  dup3\n    /* \"#utility.yul\":400:454   */\n  and\n    /* \"#utility.yul\":389:454   */\n  swap1\n  pop\n    /* \"#utility.yul\":334:460   */\n  swap2\n  swap1\n  pop\n  jump\t// out\n    /* \"#utility.yul\":466:562   */\ntag_11:\n    /* \"#utility.yul\":503:510   */\n  0x00\n    /* \"#utility.yul\":532:556   */\n  tag_20\n    /* \"#utility.yul\":550:555   */\n  dup3\n    /* \"#utility.yul\":532:556   */\n  tag_10\n  jump\t// in\ntag_20:\n    /* \"#utility.yul\":521:556   */\n  swap1\n  pop\n    /* \"#utility.yul\":466:562   */\n  swap2\n  swap1\n  pop\n  jump\t// out\n    /* \"#utility.yul\":568:690   */\ntag_12:\n    /* \"#utility.yul\":641:665   */\n  tag_22\n    /* \"#utility.yul\":659:664   */\n  dup2\n    /* \"#utility.yul\":641:665   */\n  tag_11\n  jump\t// in\ntag_22:\n    /* \"#utility.yul\":634:639   */\n  dup2\n    /* \"#utility.yul\":631:666   */\n  eq\n    /* \"#utility.yul\":621:684   */\n  tag_23\n  jumpi\n    /* \"#utility.yul\":680:681   */\n  0x00\n    /* \"#utility.yul\":677:678   */\n  dup1\n    /* \"#utility.yul\":670:682   */\n  revert\n    /* \"#utility.yul\":621:684   */\ntag_23:\n    /* \"#utility.yul\":568:690   */\n  pop\n  jump\t// out\n    /* \"#utility.yul\":696:839   */\ntag_13:\n    /* \"#utility.yul\":753:758   */\n  0x00\n    /* \"#utility.yul\":784:790   */\n  dup2\n    /* \"#utility.yul\":778:791   */\n  mload\n    /* \"#utility.yul\":769:791   */\n  swap1\n  pop\n    /* \"#utility.yul\":800:833   */\n  tag_25\n    /* \"#utility.yul\":827:832   */\n  dup2\n    /* \"#utility.yul\":800:833   */\n  tag_12\n  jump\t// in\ntag_25:\n    /* \"#utility.yul\":696:839   */\n  swap3\n  swap2\n  pop\n  pop\n  jump\t// out\n    /* \"#utility.yul\":845:1196   */\ntag_3:\n    /* \"#utility.yul\":915:921   */\n  0x00\n    /* \"#utility.yul\":964:966   */\n  0x20\n    /* \"#utility.yul\":952:961   */\n  dup3\n    /* \"#utility.yul\":943:950   */\n  dup5\n    /* \"#utility.yul\":939:962   */\n  sub\n    /* \"#utility.yul\":935:967   */\n  slt\n    /* \"#utility.yul\":932:1051   */\n  iszero\n  tag_27\n  jumpi\n    /* \"#utility.yul\":970:1049   */\n  tag_28\n  tag_8\n  jump\t// in\ntag_28:\n    /* \"#utility.yul\":932:1051   */\ntag_27:\n    /* \"#utility.yul\":1090:1091   */\n  0x00\n    /* \"#utility.yul\":1115:1179   */\n  tag_29\n    /* \"#utility.yul\":1171:1178   */\n  dup5\n    /* \"#utility.yul\":1162:1168   */\n  dup3\n    /* \"#utility.yul\":1151:1160   */\n  dup6\n    /* \"#utility.yul\":1147:1169   */\n  add\n    /* \"#utility.yul\":1115:1179   */\n  tag_13\n  jump\t// in\ntag_29:\n    /* \"#utility.yul\":1105:1179   */\n  swap2\n  pop\n    /* \"#utility.yul\":1061:1189   */\n  pop\n    /* \"#utility.yul\":845:1196   */\n  swap3\n  swap2\n  pop\n  pop\n  jump\t// out\n    /* \"contract/delegate.sol\":308:697  contract Proxy {... */\ntag_6:\n  dataSize(sub_0)\n  dup1\n  dataOffset(sub_0)\n  0x00\n  codecopy\n  0x00\n  return\nstop\n\nsub_0: assembly {\n        /* \"contract/delegate.sol\":308:697  contract Proxy {... */\n      mstore(0x40, 0x80)\n      jumpi(tag_1, lt(calldatasize, 0x04))\n      shr(0xe0, calldataload(0x00))\n      dup1\n      0x5c60da1b\n      eq\n      tag_3\n      jumpi\n      dup1\n      0x78252105\n      eq\n      tag_4\n      jumpi\n      dup1\n      0xc0df3bf8\n      eq\n      tag_5\n      jumpi\n      jump(tag_2)\n    tag_1:\n      jumpi(tag_2, calldatasize)\n      stop\n    tag_2:\n        /* \"contract/delegate.sol\":548:560  bool success */\n      0x00\n        /* \"contract/delegate.sol\":566:580  implementation */\n      0x02\n      0x00\n      swap1\n      sload\n      swap1\n      0x0100\n      exp\n      swap1\n      div\n      0xffffffffffffffffffffffffffffffffffffffff\n      and\n        /* \"contract/delegate.sol\":566:593  implementation.delegatecall */\n      0xffffffffffffffffffffffffffffffffffffffff\n      and\n        /* \"contract/delegate.sol\":594:602  msg.data */\n      0x00\n      calldatasize\n        /* \"contract/delegate.sol\":566:603  implementation.delegatecall(msg.data) */\n      mload(0x40)\n      tag_10\n      swap3\n      swap2\n      swap1\n      tag_11\n      jump\t// in\n    tag_10:\n      0x00\n      mload(0x40)\n      dup1\n      dup4\n      sub\n      dup2\n      dup6\n      gas\n      delegatecall\n      swap2\n      pop\n      pop\n      returndatasize\n      dup1\n      0x00\n      dup2\n      eq\n      tag_14\n      jumpi\n      mload(0x40)\n      swap2\n      pop\n      and(add(returndatasize, 0x3f), not(0x1f))\n      dup3\n      add\n      0x40\n      mstore\n      returndatasize\n      dup3\n      mstore\n      returndatasize\n      0x00\n      0x20\n      dup5\n      add\n      returndatacopy\n      jump(tag_13)\n    tag_14:\n      0x60\n      swap2\n      pop\n    tag_13:\n      pop\n        /* \"contract/delegate.sol\":547:603  (bool success, ) = implementation.delegatecall(msg.data) */\n      pop\n      swap1\n      pop\n        /* \"contract/delegate.sol\":621:628  success */\n      dup1\n        /* \"contract/delegate.sol\":613:652  require(success, \"Delegatecall failed\") */\n      tag_15\n      jumpi\n      mload(0x40)\n      0x08c379a000000000000000000000000000000000000000000000000000000000\n      dup2\n      mstore\n      0x04\n      add\n      tag_16\n      swap1\n      tag_17\n      jump\t// in\n    tag_16:\n      mload(0x40)\n      dup1\n      swap2\n      sub\n      swap1\n      revert\n    tag_15:\n        /* \"contract/delegate.sol\":537:659  {... */\n      stop\n        /* \"contract/delegate.sol\":379:408  address public implementation */\n    tag_3:\n      callvalue\n      dup1\n      iszero\n      tag_18\n      jumpi\n      0x00\n      dup1\n      revert\n    tag_18:\n      pop\n      tag_19\n      tag_20\n      jump\t// in\n    tag_19:\n      mload(0x40)\n      tag_21\n      swap2\n      swap1\n      tag_22\n      jump\t// in\n    tag_21:\n      mload(0x40)\n      dup1\n      swap2\n      sub\n      swap1\n      return\n        /* \"contract/delegate.sol\":329:347  string public male */\n    tag_4:\n      callvalue\n      dup1\n      iszero\n      tag_23\n      jumpi\n      0x00\n      dup1\n      revert\n    tag_23:\n      pop\n      tag_24\n      tag_25\n      jump\t// in\n    tag_24:\n      mload(0x40)\n      tag_26\n      swap2\n      swap1\n      tag_27\n      jump\t// in\n    tag_26:\n      mload(0x40)\n      dup1\n      swap2\n      sub\n      swap1\n      return\n        /* \"contract/delegate.sol\":353:373  string public female */\n    tag_5:\n      callvalue\n      dup1\n      iszero\n      tag_28\n      jumpi\n      0x00\n      dup1\n      revert\n    tag_28:\n      pop\n      tag_29\n      tag_30\n      jump\t// in\n    tag_29:\n      mload(0x40)\n      tag_31\n      swap2\n      swap1\n      tag_27\n      jump\t// in\n    tag_31:\n      mload(0x40)\n      dup1\n      swap2\n      sub\n      swap1\n      return\n        /* \"contract/delegate.sol\":379:408  address public implementation */\n    tag_20:\n      0x02\n      0x00\n      swap1\n      sload\n      swap1\n      0x0100\n      exp\n      swap1\n      div\n      0xffffffffffffffffffffffffffffffffffffffff\n      and\n      dup2\n      jump\t// out\n        /* \"contract/delegate.sol\":329:347  string public male */\n    tag_25:\n      0x00\n      dup1\n      sload\n      tag_32\n      swap1\n      tag_33\n      jump\t// in\n    tag_32:\n      dup1\n      0x1f\n      add\n      0x20\n      dup1\n      swap2\n      div\n      mul\n      0x20\n      add\n      mload(0x40)\n      swap1\n      dup2\n      add\n      0x40\n      mstore\n      dup1\n      swap3\n      swap2\n      swap1\n      dup2\n      dup2\n      mstore\n      0x20\n      add\n      dup3\n      dup1\n      sload\n      tag_34\n      swap1\n      tag_33\n      jump\t// in\n    tag_34:\n      dup1\n      iszero\n      tag_35\n      jumpi\n      dup1\n      0x1f\n      lt\n      tag_36\n      jumpi\n      0x0100\n      dup1\n      dup4\n      sload\n      div\n      mul\n      dup4\n      mstore\n      swap2\n      0x20\n      add\n      swap2\n      jump(tag_35)\n    tag_36:\n      dup3\n      add\n      swap2\n      swap1\n      0x00\n      mstore\n      keccak256(0x00, 0x20)\n      swap1\n    tag_37:\n      dup2\n      sload\n      dup2\n      mstore\n      swap1\n      0x01\n      add\n      swap1\n      0x20\n      add\n      dup1\n      dup4\n      gt\n      tag_37\n      jumpi\n      dup3\n      swap1\n      sub\n      0x1f\n      and\n      dup3\n      add\n      swap2\n    tag_35:\n      pop\n      pop\n      pop\n      pop\n      pop\n      dup2\n      jump\t// out\n        /* \"contract/delegate.sol\":353:373  string public female */\n    tag_30:\n      0x01\n      dup1\n      sload\n      tag_38\n      swap1\n      tag_33\n      jump\t// in\n    tag_38:\n      dup1\n      0x1f\n      add\n      0x20\n      dup1\n      swap2\n      div\n      mul\n      0x20\n      add\n      mload(0x40)\n      swap1\n      dup2\n      add\n      0x40\n      mstore\n      dup1\n      swap3\n      swap2\n      swap1\n      dup2\n      dup2\n      mstore\n      0x20\n      add\n      dup3\n      dup1\n      sload\n      tag_39\n      swap1\n      tag_33\n      jump\t// in\n    tag_39:\n      dup1\n      iszero\n      tag_40\n      jumpi\n      dup1\n      0x1f\n      lt\n      tag_41\n      jumpi\n      0x0100\n      dup1\n      dup4\n      sload\n      div\n      mul\n      dup4\n      mstore\n      swap2\n      0x20\n      add\n      swap2\n      jump(tag_40)\n    tag_41:\n      dup3\n      add\n      swap2\n      swap1\n      0x00\n      mstore\n      keccak256(0x00, 0x20)\n      swap1\n    tag_42:\n      dup2\n      sload\n      dup2\n      mstore\n      swap1\n      0x01\n      add\n      swap1\n      0x20\n      add\n      dup1\n      dup4\n      gt\n      tag_42\n      jumpi\n      dup3\n      swap1\n      sub\n      0x1f\n      and\n      dup3\n      add\n      swap2\n    tag_40:\n      pop\n      pop\n      pop\n      pop\n      pop\n      dup2\n      jump\t// out\n        /* \"#utility.yul\":7:154   */\n    tag_43:\n        /* \"#utility.yul\":108:119   */\n      0x00\n        /* \"#utility.yul\":145:148   */\n      dup2\n        /* \"#utility.yul\":130:148   */\n      swap1\n      pop\n        /* \"#utility.yul\":7:154   */\n      swap3\n      swap2\n      pop\n      pop\n      jump\t// out\n        /* \"#utility.yul\":160:308   */\n    tag_44:\n        /* \"#utility.yul\":258:264   */\n      dup3\n        /* \"#utility.yul\":253:256   */\n      dup2\n        /* \"#utility.yul\":248:251   */\n      dup4\n        /* \"#utility.yul\":235:265   */\n      calldatacopy\n        /* \"#utility.yul\":299:300   */\n      0x00\n        /* \"#utility.yul\":290:296   */\n      dup4\n        /* \"#utility.yul\":285:288   */\n      dup4\n        /* \"#utility.yul\":281:297   */\n      add\n        /* \"#utility.yul\":274:301   */\n      mstore\n        /* \"#utility.yul\":160:308   */\n      pop\n      pop\n      pop\n      jump\t// out\n        /* \"#utility.yul\":336:663   */\n    tag_45:\n        /* \"#utility.yul\":450:453   */\n      0x00\n        /* \"#utility.yul\":471:559   */\n      tag_61\n        /* \"#utility.yul\":552:558   */\n      dup4\n        /* \"#utility.yul\":547:550   */\n      dup6\n        /* \"#utility.yul\":471:559   */\n      tag_43\n      jump\t// in\n    tag_61:\n        /* \"#utility.yul\":464:559   */\n      swap4\n      pop\n        /* \"#utility.yul\":569:625   */\n      tag_62\n        /* \"#utility.yul\":618:624   */\n      dup4\n        /* \"#utility.yul\":613:616   */\n      dup6\n        /* \"#utility.yul\":606:611   */\n      dup5\n        /* \"#utility.yul\":569:625   */\n      tag_44\n      jump\t// in\n    tag_62:\n        /* \"#utility.yul\":650:656   */\n      dup3\n        /* \"#utility.yul\":645:648   */\n      dup5\n        /* \"#utility.yul\":641:657   */\n      add\n        /* \"#utility.yul\":634:657   */\n      swap1\n      pop\n        /* \"#utility.yul\":336:663   */\n      swap4\n      swap3\n      pop\n      pop\n      pop\n      jump\t// out\n        /* \"#utility.yul\":669:960   */\n    tag_11:\n        /* \"#utility.yul\":809:812   */\n      0x00\n        /* \"#utility.yul\":831:934   */\n      tag_64\n        /* \"#utility.yul\":930:933   */\n      dup3\n        /* \"#utility.yul\":921:927   */\n      dup5\n        /* \"#utility.yul\":913:919   */\n      dup7\n        /* \"#utility.yul\":831:934   */\n      tag_45\n      jump\t// in\n    tag_64:\n        /* \"#utility.yul\":824:934   */\n      swap2\n      pop\n        /* \"#utility.yul\":951:954   */\n      dup2\n        /* \"#utility.yul\":944:954   */\n      swap1\n      pop\n        /* \"#utility.yul\":669:960   */\n      swap4\n      swap3\n      pop\n      pop\n      pop\n      jump\t// out\n        /* \"#utility.yul\":966:1135   */\n    tag_46:\n        /* \"#utility.yul\":1050:1061   */\n      0x00\n        /* \"#utility.yul\":1084:1090   */\n      dup3\n        /* \"#utility.yul\":1079:1082   */\n      dup3\n        /* \"#utility.yul\":1072:1091   */\n      mstore\n        /* \"#utility.yul\":1124:1128   */\n      0x20\n        /* \"#utility.yul\":1119:1122   */\n      dup3\n        /* \"#utility.yul\":1115:1129   */\n      add\n        /* \"#utility.yul\":1100:1129   */\n      swap1\n      pop\n        /* \"#utility.yul\":966:1135   */\n      swap3\n      swap2\n      pop\n      pop\n      jump\t// out\n        /* \"#utility.yul\":1141:1310   */\n    tag_47:\n        /* \"#utility.yul\":1281:1302   */\n      0x44656c656761746563616c6c206661696c656400000000000000000000000000\n        /* \"#utility.yul\":1277:1278   */\n      0x00\n        /* \"#utility.yul\":1269:1275   */\n      dup3\n        /* \"#utility.yul\":1265:1279   */\n      add\n        /* \"#utility.yul\":1258:1303   */\n      mstore\n        /* \"#utility.yul\":1141:1310   */\n      pop\n      jump\t// out\n        /* \"#utility.yul\":1316:1682   */\n    tag_48:\n        /* \"#utility.yul\":1458:1461   */\n      0x00\n        /* \"#utility.yul\":1479:1546   */\n      tag_68\n        /* \"#utility.yul\":1543:1545   */\n      0x13\n        /* \"#utility.yul\":1538:1541   */\n      dup4\n        /* \"#utility.yul\":1479:1546   */\n      tag_46\n      jump\t// in\n    tag_68:\n        /* \"#utility.yul\":1472:1546   */\n      swap2\n      pop\n        /* \"#utility.yul\":1555:1648   */\n      tag_69\n        /* \"#utility.yul\":1644:1647   */\n      dup3\n        /* \"#utility.yul\":1555:1648   */\n      tag_47\n      jump\t// in\n    tag_69:\n        /* \"#utility.yul\":1673:1675   */\n      0x20\n        /* \"#utility.yul\":1668:1671   */\n      dup3\n        /* \"#utility.yul\":1664:1676   */\n      add\n        /* \"#utility.yul\":1657:1676   */\n      swap1\n      pop\n        /* \"#utility.yul\":1316:1682   */\n      swap2\n      swap1\n      pop\n      jump\t// out\n        /* \"#utility.yul\":1688:2107   */\n    tag_17:\n        /* \"#utility.yul\":1854:1858   */\n      0x00\n        /* \"#utility.yul\":1892:1894   */\n      0x20\n        /* \"#utility.yul\":1881:1890   */\n      dup3\n        /* \"#utility.yul\":1877:1895   */\n      add\n        /* \"#utility.yul\":1869:1895   */\n      swap1\n      pop\n        /* \"#utility.yul\":1941:1950   */\n      dup2\n        /* \"#utility.yul\":1935:1939   */\n      dup2\n        /* \"#utility.yul\":1931:1951   */\n      sub\n        /* \"#utility.yul\":1927:1928   */\n      0x00\n        /* \"#utility.yul\":1916:1925   */\n      dup4\n        /* \"#utility.yul\":1912:1929   */\n      add\n        /* \"#utility.yul\":1905:1952   */\n      mstore\n        /* \"#utility.yul\":1969:2100   */\n      tag_71\n        /* \"#utility.yul\":2095:2099   */\n      dup2\n        /* \"#utility.yul\":1969:2100   */\n      tag_48\n      jump\t// in\n    tag_71:\n        /* \"#utility.yul\":1961:2100   */\n      swap1\n      pop\n        /* \"#utility.yul\":1688:2107   */\n      swap2\n      swap1\n      pop\n      jump\t// out\n        /* \"#utility.yul\":2113:2239   */\n    tag_49:\n        /* \"#utility.yul\":2150:2157   */\n      0x00\n        /* \"#utility.yul\":2190:2232   */\n      0xffffffffffffffffffffffffffffffffffffffff\n        /* \"#utility.yul\":2183:2188   */\n      dup3\n        /* \"#utility.yul\":2179:2233   */\n      and\n        /* \"#utility.yul\":2168:2233   */\n      swap1\n      pop\n        /* \"#utility.yul\":2113:2239   */\n      swap2\n      swap1\n      pop\n      jump\t// out\n        /* \"#utility.yul\":2245:2341   */\n    tag_50:\n        /* \"#utility.yul\":2282:2289   */\n      0x00\n        /* \"#utility.yul\":2311:2335   */\n      tag_74\n        /* \"#utility.yul\":2329:2334   */\n      dup3\n        /* \"#utility.yul\":2311:2335   */\n      tag_49\n      jump\t// in\n    tag_74:\n        /* \"#utility.yul\":2300:2335   */\n      swap1\n      pop\n        /* \"#utility.yul\":2245:2341   */\n      swap2\n      swap1\n      pop\n      jump\t// out\n        /* \"#utility.yul\":2347:2465   */\n    tag_51:\n        /* \"#utility.yul\":2434:2458   */\n      tag_76\n        /* \"#utility.yul\":2452:2457   */\n      dup2\n        /* \"#utility.yul\":2434:2458   */\n      tag_50\n      jump\t// in\n    tag_76:\n        /* \"#utility.yul\":2429:2432   */\n      dup3\n        /* \"#utility.yul\":2422:2459   */\n      mstore\n        /* \"#utility.yul\":2347:2465   */\n      pop\n      pop\n      jump\t// out\n        /* \"#utility.yul\":2471:2693   */\n    tag_22:\n        /* \"#utility.yul\":2564:2568   */\n      0x00\n        /* \"#utility.yul\":2602:2604   */\n      0x20\n        /* \"#utility.yul\":2591:2600   */\n      dup3\n        /* \"#utility.yul\":2587:2605   */\n      add\n        /* \"#utility.yul\":2579:2605   */\n      swap1\n      pop\n        /* \"#utility.yul\":2615:2686   */\n      tag_78\n        /* \"#utility.yul\":2683:2684   */\n      0x00\n        /* \"#utility.yul\":2672:2681   */\n      dup4\n        /* \"#utility.yul\":2668:2685   */\n      add\n        /* \"#utility.yul\":2659:2665   */\n      dup5\n        /* \"#utility.yul\":2615:2686   */\n      tag_51\n      jump\t// in\n    tag_78:\n        /* \"#utility.yul\":2471:2693   */\n      swap3\n      swap2\n      pop\n      pop\n      jump\t// out\n        /* \"#utility.yul\":2699:2798   */\n    tag_52:\n        /* \"#utility.yul\":2751:2757   */\n      0x00\n        /* \"#utility.yul\":2785:2790   */\n      dup2\n        /* \"#utility.yul\":2779:2791   */\n      mload\n        /* \"#utility.yul\":2769:2791   */\n      swap1\n      pop\n        /* \"#utility.yul\":2699:2798   */\n      swap2\n      swap1\n      pop\n      jump\t// out\n        /* \"#utility.yul\":2804:2943   */\n    tag_53:\n        /* \"#utility.yul\":2893:2899   */\n      dup3\n        /* \"#utility.yul\":2888:2891   */\n      dup2\n        /* \"#utility.yul\":2883:2886   */\n      dup4\n        /* \"#utility.yul\":2877:2900   */\n      mcopy\n        /* \"#utility.yul\":2934:2935   */\n      0x00\n        /* \"#utility.yul\":2925:2931   */\n      dup4\n        /* \"#utility.yul\":2920:2923   */\n      dup4\n        /* \"#utility.yul\":2916:2932   */\n      add\n        /* \"#utility.yul\":2909:2936   */\n      mstore\n        /* \"#utility.yul\":2804:2943   */\n      pop\n      pop\n      pop\n      jump\t// out\n        /* \"#utility.yul\":2949:3051   */\n    tag_54:\n        /* \"#utility.yul\":2990:2996   */\n      0x00\n        /* \"#utility.yul\":3041:3043   */\n      0x1f\n        /* \"#utility.yul\":3037:3044   */\n      not\n        /* \"#utility.yul\":3032:3034   */\n      0x1f\n        /* \"#utility.yul\":3025:3030   */\n      dup4\n        /* \"#utility.yul\":3021:3035   */\n      add\n        /* \"#utility.yul\":3017:3045   */\n      and\n        /* \"#utility.yul\":3007:3045   */\n      swap1\n      pop\n        /* \"#utility.yul\":2949:3051   */\n      swap2\n      swap1\n      pop\n      jump\t// out\n        /* \"#utility.yul\":3057:3434   */\n    tag_55:\n        /* \"#utility.yul\":3145:3148   */\n      0x00\n        /* \"#utility.yul\":3173:3212   */\n      tag_83\n        /* \"#utility.yul\":3206:3211   */\n      dup3\n        /* \"#utility.yul\":3173:3212   */\n      tag_52\n      jump\t// in\n    tag_83:\n        /* \"#utility.yul\":3228:3299   */\n      tag_84\n        /* \"#utility.yul\":3292:3298   */\n      dup2\n        /* \"#utility.yul\":3287:3290   */\n      dup6\n        /* \"#utility.yul\":3228:3299   */\n      tag_46\n      jump\t// in\n    tag_84:\n        /* \"#utility.yul\":3221:3299   */\n      swap4\n      pop\n        /* \"#utility.yul\":3308:3373   */\n      tag_85\n        /* \"#utility.yul\":3366:3372   */\n      dup2\n        /* \"#utility.yul\":3361:3364   */\n      dup6\n        /* \"#utility.yul\":3354:3358   */\n      0x20\n        /* \"#utility.yul\":3347:3352   */\n      dup7\n        /* \"#utility.yul\":3343:3359   */\n      add\n        /* \"#utility.yul\":3308:3373   */\n      tag_53\n      jump\t// in\n    tag_85:\n        /* \"#utility.yul\":3398:3427   */\n      tag_86\n        /* \"#utility.yul\":3420:3426   */\n      dup2\n        /* \"#utility.yul\":3398:3427   */\n      tag_54\n      jump\t// in\n    tag_86:\n        /* \"#utility.yul\":3393:3396   */\n      dup5\n        /* \"#utility.yul\":3389:3428   */\n      add\n        /* \"#utility.yul\":3382:3428   */\n      swap2\n      pop\n        /* \"#utility.yul\":3149:3434   */\n      pop\n        /* \"#utility.yul\":3057:3434   */\n      swap3\n      swap2\n      pop\n      pop\n      jump\t// out\n        /* \"#utility.yul\":3440:3753   */\n    tag_27:\n        /* \"#utility.yul\":3553:3557   */\n      0x00\n        /* \"#utility.yul\":3591:3593   */\n      0x20\n        /* \"#utility.yul\":3580:3589   */\n      dup3\n        /* \"#utility.yul\":3576:3594   */\n      add\n        /* \"#utility.yul\":3568:3594   */\n      swap1\n      pop\n        /* \"#utility.yul\":3640:3649   */\n      dup2\n        /* \"#utility.yul\":3634:3638   */\n      dup2\n        /* \"#utility.yul\":3630:3650   */\n      sub\n        /* \"#utility.yul\":3626:3627   */\n      0x00\n        /* \"#utility.yul\":3615:3624   */\n      dup4\n        /* \"#utility.yul\":3611:3628   */\n      add\n        /* \"#utility.yul\":3604:3651   */\n      mstore\n        /* \"#utility.yul\":3668:3746   */\n      tag_88\n        /* \"#utility.yul\":3741:3745   */\n      dup2\n        /* \"#utility.yul\":3732:3738   */\n      dup5\n        /* \"#utility.yul\":3668:3746   */\n      tag_55\n      jump\t// in\n    tag_88:\n        /* \"#utility.yul\":3660:3746   */\n      swap1\n      pop\n        /* \"#utility.yul\":3440:3753   */\n      swap3\n      swap2\n      pop\n      pop\n      jump\t// out\n        /* \"#utility.yul\":3759:3939   */\n    tag_56:\n        /* \"#utility.yul\":3807:3884   */\n      0x4e487b7100000000000000000000000000000000000000000000000000000000\n        /* \"#utility.yul\":3804:3805   */\n      0x00\n        /* \"#utility.yul\":3797:3885   */\n      mstore\n        /* \"#utility.yul\":3904:3908   */\n      0x22\n        /* \"#utility.yul\":3901:3902   */\n      0x04\n        /* \"#utility.yul\":3894:3909   */\n      mstore\n        /* \"#utility.yul\":3928:3932   */\n      0x24\n        /* \"#utility.yul\":3925:3926   */\n      0x00\n        /* \"#utility.yul\":3918:3933   */\n      revert\n        /* \"#utility.yul\":3945:4265   */\n    tag_33:\n        /* \"#utility.yul\":3989:3995   */\n      0x00\n        /* \"#utility.yul\":4026:4027   */\n      0x02\n        /* \"#utility.yul\":4020:4024   */\n      dup3\n        /* \"#utility.yul\":4016:4028   */\n      div\n        /* \"#utility.yul\":4006:4028   */\n      swap1\n      pop\n        /* \"#utility.yul\":4073:4074   */\n      0x01\n        /* \"#utility.yul\":4067:4071   */\n      dup3\n        /* \"#utility.yul\":4063:4075   */\n      and\n        /* \"#utility.yul\":4094:4112   */\n      dup1\n        /* \"#utility.yul\":4084:4165   */\n      tag_91\n      jumpi\n        /* \"#utility.yul\":4150:4154   */\n      0x7f\n        /* \"#utility.yul\":4142:4148   */\n      dup3\n        /* \"#utility.yul\":4138:4155   */\n      and\n        /* \"#utility.yul\":4128:4155   */\n      swap2\n      pop\n        /* \"#utility.yul\":4084:4165   */\n    tag_91:\n        /* \"#utility.yul\":4212:4214   */\n      0x20\n        /* \"#utility.yul\":4204:4210   */\n      dup3\n        /* \"#utility.yul\":4201:4215   */\n      lt\n        /* \"#utility.yul\":4181:4199   */\n      dup2\n        /* \"#utility.yul\":4178:4216   */\n      sub\n        /* \"#utility.yul\":4175:4259   */\n      tag_92\n      jumpi\n        /* \"#utility.yul\":4231:4249   */\n      tag_93\n      tag_56\n      jump\t// in\n    tag_93:\n        /* \"#utility.yul\":4175:4259   */\n    tag_92:\n        /* \"#utility.yul\":3996:4265   */\n      pop\n        /* \"#utility.yul\":3945:4265   */\n      swap2\n      swap1\n      pop\n      jump\t// out\n\n    auxdata: 0xa264697066735822122060c04ef144b970627c96096561a832ad0c20e5a8d3ee5f93f4d697643cd44c7664736f6c634300081a0033\n}\n",
				"bytecode": {
					"linkReferences": {},
					"object": "608060405234801561000f575f80fd5b50604051610608380380610608833981810160405281019061003191906100d5565b8060025f6101000a81548173ffffffffffffffffffffffffffffffffffffffff021916908373ffffffffffffffffffffffffffffffffffffffff16021790555050610100565b5f80fd5b5f73ffffffffffffffffffffffffffffffffffffffff82169050919050565b5f6100a48261007b565b9050919050565b6100b48161009a565b81146100be575f80fd5b50565b5f815190506100cf816100ab565b92915050565b5f602082840312156100ea576100e9610077565b5b5f6100f7848285016100c1565b91505092915050565b6104fb8061010d5f395ff3fe608060405260043610610037575f3560e01c80635c60da1b1461010a5780637825210514610134578063c0df3bf81461015e5761003e565b3661003e57005b5f60025f9054906101000a900473ffffffffffffffffffffffffffffffffffffffff1673ffffffffffffffffffffffffffffffffffffffff165f36604051610087929190610300565b5f60405180830381855af49150503d805f81146100bf576040519150601f19603f3d011682016040523d82523d5f602084013e6100c4565b606091505b5050905080610108576040517f08c379a00000000000000000000000000000000000000000000000000000000081526004016100ff90610372565b60405180910390fd5b005b348015610115575f80fd5b5061011e610188565b60405161012b91906103cf565b60405180910390f35b34801561013f575f80fd5b506101486101ad565b6040516101559190610448565b60405180910390f35b348015610169575f80fd5b50610172610238565b60405161017f9190610448565b60405180910390f35b60025f9054906101000a900473ffffffffffffffffffffffffffffffffffffffff1681565b5f80546101b990610495565b80601f01602080910402602001604051908101604052809291908181526020018280546101e590610495565b80156102305780601f1061020757610100808354040283529160200191610230565b820191905f5260205f20905b81548152906001019060200180831161021357829003601f168201915b505050505081565b6001805461024590610495565b80601f016020809104026020016040519081016040528092919081815260200182805461027190610495565b80156102bc5780601f10610293576101008083540402835291602001916102bc565b820191905f5260205f20905b81548152906001019060200180831161029f57829003601f168201915b505050505081565b5f81905092915050565b828183375f83830152505050565b5f6102e783856102c4565b93506102f48385846102ce565b82840190509392505050565b5f61030c8284866102dc565b91508190509392505050565b5f82825260208201905092915050565b7f44656c656761746563616c6c206661696c6564000000000000000000000000005f82015250565b5f61035c601383610318565b915061036782610328565b602082019050919050565b5f6020820190508181035f83015261038981610350565b9050919050565b5f73ffffffffffffffffffffffffffffffffffffffff82169050919050565b5f6103b982610390565b9050919050565b6103c9816103af565b82525050565b5f6020820190506103e25f8301846103c0565b92915050565b5f81519050919050565b8281835e5f83830152505050565b5f601f19601f8301169050919050565b5f61041a826103e8565b6104248185610318565b93506104348185602086016103f2565b61043d81610400565b840191505092915050565b5f6020820190508181035f8301526104608184610410565b905092915050565b7f4e487b71000000000000000000000000000000000000000000000000000000005f52602260045260245ffd5b5f60028204905060018216806104ac57607f821691505b6020821081036104bf576104be610468565b5b5091905056fea264697066735822122060c04ef144b970627c96096561a832ad0c20e5a8d3ee5f93f4d697643cd44c7664736f6c634300081a0033",
					"opcodes": "PUSH1 0x80 PUSH1 0x40 MSTORE CALLVALUE DUP1 ISZERO PUSH2 0xF JUMPI PUSH0 DUP1 REVERT JUMPDEST POP PUSH1 0x40 MLOAD PUSH2 0x608 CODESIZE SUB DUP1 PUSH2 0x608 DUP4 CODECOPY DUP2 DUP2 ADD PUSH1 0x40 MSTORE DUP2 ADD SWAP1 PUSH2 0x31 SWAP2 SWAP1 PUSH2 0xD5 JUMP JUMPDEST DUP1 PUSH1 0x2 PUSH0 PUSH2 0x100 EXP DUP2 SLOAD DUP2 PUSH20 0xFFFFFFFFFFFFFFFFFFFFFFFFFFFFFFFFFFFFFFFF MUL NOT AND SWAP1 DUP4 PUSH20 0xFFFFFFFFFFFFFFFFFFFFFFFFFFFFFFFFFFFFFFFF AND MUL OR SWAP1 SSTORE POP POP PUSH2 0x100 JUMP JUMPDEST PUSH0 DUP1 REVERT JUMPDEST PUSH0 PUSH20 0xFFFFFFFFFFFFFFFFFFFFFFFFFFFFFFFFFFFFFFFF DUP3 AND SWAP1 POP SWAP2 SWAP1 POP JUMP JUMPDEST PUSH0 PUSH2 0xA4 DUP3 PUSH2 0x7B JUMP JUMPDEST SWAP1 POP SWAP2 SWAP1 POP JUMP JUMPDEST PUSH2 0xB4 DUP2 PUSH2 0x9A JUMP JUMPDEST DUP2 EQ PUSH2 0xBE JUMPI PUSH0 DUP1 REVERT JUMPDEST POP JUMP JUMPDEST PUSH0 DUP2 MLOAD SWAP1 POP PUSH2 0xCF DUP2 PUSH2 0xAB JUMP JUMPDEST SWAP3 SWAP2 POP POP JUMP JUMPDEST PUSH0 PUSH1 0x20 DUP3 DUP5 SUB SLT ISZERO PUSH2 0xEA JUMPI PUSH2 0xE9 PUSH2 0x77 JUMP JUMPDEST JUMPDEST PUSH0 PUSH2 0xF7 DUP5 DUP3 DUP6 ADD PUSH2 0xC1 JUMP JUMPDEST SWAP2 POP POP SWAP3 SWAP2 POP POP JUMP JUMPDEST PUSH2 0x4FB DUP1 PUSH2 0x10D PUSH0 CODECOPY PUSH0 RETURN INVALID PUSH1 0x80 PUSH1 0x40 MSTORE PUSH1 0x4 CALLDATASIZE LT PUSH2 0x37 JUMPI PUSH0 CALLDATALOAD PUSH1 0xE0 SHR DUP1 PUSH4 0x5C60DA1B EQ PUSH2 0x10A JUMPI DUP1 PUSH4 0x78252105 EQ PUSH2 0x134 JUMPI DUP1 PUSH4 0xC0DF3BF8 EQ PUSH2 0x15E JUMPI PUSH2 0x3E JUMP JUMPDEST CALLDATASIZE PUSH2 0x3E JUMPI STOP JUMPDEST PUSH0 PUSH1 0x2 PUSH0 SWAP1 SLOAD SWAP1 PUSH2 0x100 EXP SWAP1 DIV PUSH20 0xFFFFFFFFFFFFFFFFFFFFFFFFFFFFFFFFFFFFFFFF AND PUSH20 0xFFFFFFFFFFFFFFFFFFFFFFFFFFFFFFFFFFFFFFFF AND PUSH0 CALLDATASIZE PUSH1 0x40 MLOAD PUSH2 0x87 SWAP3 SWAP2 SWAP1 PUSH2 0x300 JUMP JUMPDEST PUSH0 PUSH1 0x40 MLOAD DUP1 DUP4 SUB DUP2 DUP6 GAS DELEGATECALL SWAP2 POP POP RETURNDATASIZE DUP1 PUSH0 DUP2 EQ PUSH2 0xBF JUMPI PUSH1 0x40 MLOAD SWAP2 POP PUSH1 0x1F NOT PUSH1 0x3F RETURNDATASIZE ADD AND DUP3 ADD PUSH1 0x40 MSTORE RETURNDATASIZE DUP3 MSTORE RETURNDATASIZE PUSH0 PUSH1 0x20 DUP5 ADD RETURNDATACOPY PUSH2 0xC4 JUMP JUMPDEST PUSH1 0x60 SWAP2 POP JUMPDEST POP POP SWAP1 POP DUP1 PUSH2 0x108 JUMPI PUSH1 0x40 MLOAD PUSH32 0x8C379A000000000000000000000000000000000000000000000000000000000 DUP2 MSTORE PUSH1 0x4 ADD PUSH2 0xFF SWAP1 PUSH2 0x372 JUMP JUMPDEST PUSH1 0x40 MLOAD DUP1 SWAP2 SUB SWAP1 REVERT JUMPDEST STOP JUMPDEST CALLVALUE DUP1 ISZERO PUSH2 0x115 JUMPI PUSH0 DUP1 REVERT JUMPDEST POP PUSH2 0x11E PUSH2 0x188 JUMP JUMPDEST PUSH1 0x40 MLOAD PUSH2 0x12B SWAP2 SWAP1 PUSH2 0x3CF JUMP JUMPDEST PUSH1 0x40 MLOAD DUP1 SWAP2 SUB SWAP1 RETURN JUMPDEST CALLVALUE DUP1 ISZERO PUSH2 0x13F JUMPI PUSH0 DUP1 REVERT JUMPDEST POP PUSH2 0x148 PUSH2 0x1AD JUMP JUMPDEST PUSH1 0x40 MLOAD PUSH2 0x155 SWAP2 SWAP1 PUSH2 0x448 JUMP JUMPDEST PUSH1 0x40 MLOAD DUP1 SWAP2 SUB SWAP1 RETURN JUMPDEST CALLVALUE DUP1 ISZERO PUSH2 0x169 JUMPI PUSH0 DUP1 REVERT JUMPDEST POP PUSH2 0x172 PUSH2 0x238 JUMP JUMPDEST PUSH1 0x40 MLOAD PUSH2 0x17F SWAP2 SWAP1 PUSH2 0x448 JUMP JUMPDEST PUSH1 0x40 MLOAD DUP1 SWAP2 SUB SWAP1 RETURN JUMPDEST PUSH1 0x2 PUSH0 SWAP1 SLOAD SWAP1 PUSH2 0x100 EXP SWAP1 DIV PUSH20 0xFFFFFFFFFFFFFFFFFFFFFFFFFFFFFFFFFFFFFFFF AND DUP2 JUMP JUMPDEST PUSH0 DUP1 SLOAD PUSH2 0x1B9 SWAP1 PUSH2 0x495 JUMP JUMPDEST DUP1 PUSH1 0x1F ADD PUSH1 0x20 DUP1 SWAP2 DIV MUL PUSH1 0x20 ADD PUSH1 0x40 MLOAD SWAP1 DUP2 ADD PUSH1 0x40 MSTORE DUP1 SWAP3 SWAP2 SWAP1 DUP2 DUP2 MSTORE PUSH1 0x20 ADD DUP3 DUP1 SLOAD PUSH2 0x1E5 SWAP1 PUSH2 0x495 JUMP JUMPDEST DUP1 ISZERO PUSH2 0x230 JUMPI DUP1 PUSH1 0x1F LT PUSH2 0x207 JUMPI PUSH2 0x100 DUP1 DUP4 SLOAD DIV MUL DUP4 MSTORE SWAP2 PUSH1 0x20 ADD SWAP2 PUSH2 0x230 JUMP JUMPDEST DUP3 ADD SWAP2 SWAP1 PUSH0 MSTORE PUSH1 0x20 PUSH0 KECCAK256 SWAP1 JUMPDEST DUP2 SLOAD DUP2 MSTORE SWAP1 PUSH1 0x1 ADD SWAP1 PUSH1 0x20 ADD DUP1 DUP4 GT PUSH2 0x213 JUMPI DUP3 SWAP1 SUB PUSH1 0x1F AND DUP3 ADD SWAP2 JUMPDEST POP POP POP POP POP DUP2 JUMP JUMPDEST PUSH1 0x1 DUP1 SLOAD PUSH2 0x245 SWAP1 PUSH2 0x495 JUMP JUMPDEST DUP1 PUSH1 0x1F ADD PUSH1 0x20 DUP1 SWAP2 DIV MUL PUSH1 0x20 ADD PUSH1 0x40 MLOAD SWAP1 DUP2 ADD PUSH1 0x40 MSTORE DUP1 SWAP3 SWAP2 SWAP1 DUP2 DUP2 MSTORE PUSH1 0x20 ADD DUP3 DUP1 SLOAD PUSH2 0x271 SWAP1 PUSH2 0x495 JUMP JUMPDEST DUP1 ISZERO PUSH2 0x2BC JUMPI DUP1 PUSH1 0x1F LT PUSH2 0x293 JUMPI PUSH2 0x100 DUP1 DUP4 SLOAD DIV MUL DUP4 MSTORE SWAP2 PUSH1 0x20 ADD SWAP2 PUSH2 0x2BC JUMP JUMPDEST DUP3 ADD SWAP2 SWAP1 PUSH0 MSTORE PUSH1 0x20 PUSH0 KECCAK256 SWAP1 JUMPDEST DUP2 SLOAD DUP2 MSTORE SWAP1 PUSH1 0x1 ADD SWAP1 PUSH1 0x20 ADD DUP1 DUP4 GT PUSH2 0x29F JUMPI DUP3 SWAP1 SUB PUSH1 0x1F AND DUP3 ADD SWAP2 JUMPDEST POP POP POP POP POP DUP2 JUMP JUMPDEST PUSH0 DUP2 SWAP1 POP SWAP3 SWAP2 POP POP JUMP JUMPDEST DUP3 DUP2 DUP4 CALLDATACOPY PUSH0 DUP4 DUP4 ADD MSTORE POP POP POP JUMP JUMPDEST PUSH0 PUSH2 0x2E7 DUP4 DUP6 PUSH2 0x2C4 JUMP JUMPDEST SWAP4 POP PUSH2 0x2F4 DUP4 DUP6 DUP5 PUSH2 0x2CE JUMP JUMPDEST DUP3 DUP5 ADD SWAP1 POP SWAP4 SWAP3 POP POP POP JUMP JUMPDEST PUSH0 PUSH2 0x30C DUP3 DUP5 DUP7 PUSH2 0x2DC JUMP JUMPDEST SWAP2 POP DUP2 SWAP1 POP SWAP4 SWAP3 POP POP POP JUMP JUMPDEST PUSH0 DUP3 DUP3 MSTORE PUSH1 0x20 DUP3 ADD SWAP1 POP SWAP3 SWAP2 POP POP JUMP JUMPDEST PUSH32 0x44656C656761746563616C6C206661696C656400000000000000000000000000 PUSH0 DUP3 ADD MSTORE POP JUMP JUMPDEST PUSH0 PUSH2 0x35C PUSH1 0x13 DUP4 PUSH2 0x318 JUMP JUMPDEST SWAP2 POP PUSH2 0x367 DUP3 PUSH2 0x328 JUMP JUMPDEST PUSH1 0x20 DUP3 ADD SWAP1 POP SWAP2 SWAP1 POP JUMP JUMPDEST PUSH0 PUSH1 0x20 DUP3 ADD SWAP1 POP DUP2 DUP2 SUB PUSH0 DUP4 ADD MSTORE PUSH2 0x389 DUP2 PUSH2 0x350 JUMP JUMPDEST SWAP1 POP SWAP2 SWAP1 POP JUMP JUMPDEST PUSH0 PUSH20 0xFFFFFFFFFFFFFFFFFFFFFFFFFFFFFFFFFFFFFFFF DUP3 AND SWAP1 POP SWAP2 SWAP1 POP JUMP JUMPDEST PUSH0 PUSH2 0x3B9 DUP3 PUSH2 0x390 JUMP JUMPDEST SWAP1 POP SWAP2 SWAP1 POP JUMP JUMPDEST PUSH2 0x3C9 DUP2 PUSH2 0x3AF JUMP JUMPDEST DUP3 MSTORE POP POP JUMP JUMPDEST PUSH0 PUSH1 0x20 DUP3 ADD SWAP1 POP PUSH2 0x3E2 PUSH0 DUP4 ADD DUP5 PUSH2 0x3C0 JUMP JUMPDEST SWAP3 SWAP2 POP POP JUMP JUMPDEST PUSH0 DUP2 MLOAD SWAP1 POP SWAP2 SWAP1 POP JUMP JUMPDEST DUP3 DUP2 DUP4 MCOPY PUSH0 DUP4 DUP4 ADD MSTORE POP POP POP JUMP JUMPDEST PUSH0 PUSH1 0x1F NOT PUSH1 0x1F DUP4 ADD AND SWAP1 POP SWAP2 SWAP1 POP JUMP JUMPDEST PUSH0 PUSH2 0x41A DUP3 PUSH2 0x3E8 JUMP JUMPDEST PUSH2 0x424 DUP2 DUP6 PUSH2 0x318 JUMP JUMPDEST SWAP4 POP PUSH2 0x434 DUP2 DUP6 PUSH1 0x20 DUP7 ADD PUSH2 0x3F2 JUMP JUMPDEST PUSH2 0x43D DUP2 PUSH2 0x400 JUMP JUMPDEST DUP5 ADD SWAP2 POP POP SWAP3 SWAP2 POP POP JUMP JUMPDEST PUSH0 PUSH1 0x20 DUP3 ADD SWAP1 POP DUP2 DUP2 SUB PUSH0 DUP4 ADD MSTORE PUSH2 0x460 DUP2 DUP5 PUSH2 0x410 JUMP JUMPDEST SWAP1 POP SWAP3 SWAP2 POP POP JUMP JUMPDEST PUSH32 0x4E487B7100000000000000000000000000000000000000000000000000000000 PUSH0 MSTORE PUSH1 0x22 PUSH1 0x4 MSTORE PUSH1 0x24 PUSH0 REVERT JUMPDEST PUSH0 PUSH1 0x2 DUP3 DIV SWAP1 POP PUSH1 0x1 DUP3 AND DUP1 PUSH2 0x4AC JUMPI PUSH1 0x7F DUP3 AND SWAP2 POP JUMPDEST PUSH1 0x20 DUP3 LT DUP2 SUB PUSH2 0x4BF JUMPI PUSH2 0x4BE PUSH2 0x468 JUMP JUMPDEST JUMPDEST POP SWAP2 SWAP1 POP JUMP INVALID LOG2 PUSH5 0x6970667358 0x22 SLT KECCAK256 PUSH1 0xC0 0x4E CALL PREVRANDAO 0xB9 PUSH17 0x627C96096561A832AD0C20E5A8D3EE5F93 DELEGATECALL 0xD6 SWAP8 PUSH5 0x3CD44C7664 PUSH20 0x6F6C634300081A00330000000000000000000000 "
				},
				"gasEstimates": {
					"creation": {
						"codeDepositCost": "255000",
						"executionCost": "infinite",
						"totalCost": "infinite"
					},
					"external": {
						"": "infinite",
						"female()": "infinite",
						"implementation()": "2486",
						"male()": "infinite"
					}
				},
				"methodIdentifiers": {
					"female()": "c0df3bf8",
					"implementation()": "5c60da1b",
					"male()": "78252105"
				}
			},
			"storageLayout": {
				"storage": [
					{
						"astId": 28,
						"contract": "contract/delegate.sol:Proxy",
						"label": "male",
						"offset": 0,
						"slot": "0",
						"type": "t_string_storage"
					},
					{
						"astId": 30,
						"contract": "contract/delegate.sol:Proxy",
						"label": "female",
						"offset": 0,
						"slot": "1",
						"type": "t_string_storage"
					},
					{
						"astId": 32,
						"contract": "contract/delegate.sol:Proxy",
						"label": "implementation",
						"offset": 0,
						"slot": "2",
						"type": "t_address"
					}
				],
				"types": {
					"t_address": {
						"encoding": "inplace",
						"label": "address",
						"numberOfBytes": "20"
					},
					"t_string_storage": {
						"encoding": "bytes",
						"label": "string",
						"numberOfBytes": "32"
					}
				}
			},
			"userdoc": {
				"kind": "user",
				"methods": {},
				"version": 1
			}
		}
	}
}